:100000000C9434000C94BF1B0C94D61B0C941E094A
:100010000C9451000C947D0A0C9451000C945100E6
:100020000C9451000C9451000C9451000C9451000C
:100030000C9451000C9451000C9451000C945100FC
:100040000C94E2190C9451000C947D0C0C94B10C9E
:100050000C9451000C9451000C9451000C945100DC
:100060000C9451000C94510011241FBECFEFD8E026
:10007000DEBFCDBF11E0A0E0B1E0ECEEF7E302C0DF
:1000800005900D92A033B107D9F713E0A0E3B1E0DA
:1000900001C01D92A536B107E1F70E9453000C94F0
:1000A000F41B0C940000DF93CF930F92CDB7DEB713
:1000B0000E946800A89507C0CE0101960E94460CD8
:1000C00089810E94E00D0E946E0C8823A9F7F2CF6F
:1000D000DF93CF93CDB7DEB788E190E02DE00FB688
:1000E000F894A895809360000FBE209360000E9452
:1000F00083000E94F40C0E9408180E94E00B789480
:10010000CF91DF910895DF93CF93CDB7DEB785E52B
:1001100090E025E530E0F90120812F7EFC0120836D
:1001200088E690E028E630E0F90120812560FC01B6
:10013000208380E391E060E070E041E050E00E94C5
:10014000ED1B81E391E060E070E041E050E00E944F
:10015000ED1B82E391E060E070E041E050E00E943E
:10016000ED1B83E391E060E070E041E050E00E942D
:10017000ED1B84E391E060E070E041E050E00E941C
:10018000ED1B84E391E060E070E041E050E00E940C
:10019000ED1B86E391E060E070E041E050E00E94FA
:1001A000ED1B87E391E060E070E041E050E00E94E9
:1001B000ED1B88E391E060E070E041E050E00E94D8
:1001C000ED1B89E391E060E070E041E050E00E94C7
:1001D000ED1B8AE391E060E070E041E050E00E94B6
:1001E000ED1B8BE391E060E070E041E050E00E94A5
:1001F000ED1BCF91DF910895DF93CF9300D000D016
:10020000CDB7DEB789836A834B832C838981882F9E
:1002100090E08530910509F4CDC186309105BCF49C
:100220008230910509F4CEC0833091053CF40097EB
:1002300059F18130910509F475C0DDC38330910512
:1002400009F412C18430910509F462C1D4C3883025
:10025000910509F48CC2893091054CF486309105E2
:1002600009F4F1C18730910509F435C2C4C38A305D
:10027000910509F41AC38A3091050CF4C6C28B307B
:10028000910509F464C3B7C38A81813071F489810F
:100290006B810E9424078AE290E02AE230E0F901B3
:1002A00020812460FC012083A6C38C81813051F41D
:1002B0008BE290E02BE230E0F90120812460FC0128
:1002C000208309C08BE290E02BE230E0F90120812D
:1002D0002B7FFC0120838DE690E02DE630E0F901D4
:1002E00020812460FC0120838AE290E02AE230E051
:1002F000F90120812B7FFC01208389E290E0FC0141
:100300008081882F90E08470907095958795959561
:10031000879581708170909130019E7F892B8093A9
:10032000300169C38A81813071F489816B810E94B7
:1003300024078AE290E02AE230E0F9012081286077
:10034000FC01208358C38C81813051F48BE290E012
:100350002BE230E0F90120812860FC01208309C0F4
:100360008BE290E02BE230E0F9012081277FFC0155
:1003700020838DE690E02DE630E0F90120812860B1
:10038000FC0120838AE290E02AE230E0F90120813A
:10039000277FFC01208389E290E0FC018081882F87
:1003A00090E088709070959587959595879595952F
:1003B000879581708170909131019E7F892B809308
:1003C000310119C38A81813071F489816B810E9466
:1003D00024078AE290E02AE230E0F90120812061DE
:1003E000FC01208308C38C81813051F48BE290E0C2
:1003F0002BE230E0F90120812061FC01208309C05B
:100400008BE290E02BE230E0F90120812F7EFC01AD
:1004100020838DE690E02DE630E0F9012081206117
:10042000FC0120838AE290E02AE230E0F901208199
:100430002F7EFC01208389E290E0FC018081882FDF
:1004400090E0807190709595879595958795959595
:1004500087959595879581708170909132019E7FE7
:10046000892B80933201C7C28A81813071F48981DE
:100470006B810E9424078AE290E02AE230E0F901D1
:1004800020812062FC012083B6C28C81813051F42E
:100490008BE290E02BE230E0F90120812062FC0148
:1004A000208309C08BE290E02BE230E0F90120814B
:1004B0002F7DFC0120838DE690E02DE630E0F901F0
:1004C00020812062FC0120838AE290E02AE230E071
:1004D000F90120812F7DFC01208389E290E0FC015D
:1004E0008081882F90E08072907095958795959582
:1004F000879595958795959587959595879581701D
:100500008170909133019E7F892B8093330173C258
:100510008A81813071F489816B810E9424078AE28B
:1005200090E02AE230E0F90120812064FC01208380
:1005300062C28C81813051F48BE290E02BE230E09A
:10054000F90120812064FC01208309C08BE290E046
:100550002BE230E0F90120812F7BFC0120838DE626
:1005600090E02DE630E0F90120812064FC01208339
:100570008AE290E02AE230E0F90120812F7BFC0141
:10058000208389E290E0FC018081882F90E08074D4
:100590009070082E892F000C881F990B000C881F63
:1005A000991F81708170909134019E7F892B809377
:1005B000340121C28A81813071F489816B810E946A
:1005C00024078AE290E02AE230E0F90120812068E5
:1005D000FC01208310C28C81813051F48BE290E0C9
:1005E0002BE230E0F90120812068FC01208309C062
:1005F0008BE290E02BE230E0F90120812F77FC01C3
:1006000020838DE690E02DE630E0F901208120681E
:10061000FC0120838AE290E02AE230E0F9012081A7
:100620002F77FC01208389E290E0FC018081881F04
:100630008827881F81708170909135019E7F892B5A
:1006400080933501D8C18A81813071F489816B81B1
:100650000E94240784E290E024E230E0F901208146
:100660002160FC012083C7C18C81813051F485E277
:1006700090E025E230E0F90120812160FC01208337
:1006800009C085E290E025E230E0F90120812E7F6B
:10069000FC0120838BE690E02BE630E0F90120811D
:1006A0002160FC01208384E290E024E230E0F90143
:1006B00020812E7FFC01208383E290E0FC01808179
:1006C0008170817081708170909136019E7F892B3D
:1006D0008093360190C18A81813071F489816B8168
:1006E0000E94240784E290E024E230E0F9012081B6
:1006F0002260FC0120837FC18C81813051F485E22E
:1007000090E025E230E0F90120812260FC012083A5
:1007100009C085E290E025E230E0F90120812D7FDB
:10072000FC0120838BE690E02BE630E0F90120818C
:100730002260FC01208384E290E024E230E0F901B1
:1007400020812D7FFC01208383E290E0FC018081E9
:10075000882F90E082709070959587958170817058
:10076000909137019E7F892B8093370144C18A8104
:10077000813071F489816B810E94240784E290E0CA
:1007800024E230E0F90120812460FC01208333C1A0
:100790008C81813051F485E290E025E230E0F9016E
:1007A00020812460FC01208309C085E290E025E2DD
:1007B00030E0F90120812B7FFC0120838BE690E063
:1007C0002BE630E0F90120812460FC01208384E2E3
:1007D00090E024E230E0F90120812B7FFC012083AE
:1007E00083E290E0FC018081882F90E0847090701B
:1007F0009595879595958795817081709091380131
:100800009E7F892B80933801F6C08A81813071F4F4
:1008100089816B810E94240784E290E024E230E029
:10082000F90120812860FC012083E5C08C818130A2
:1008300051F485E290E025E230E0F9012081286062
:10084000FC01208309C085E290E025E230E0F90157
:100850002081277FFC0120838BE690E02BE630E0AF
:10086000F90120812860FC01208384E290E024E2E9
:1008700030E0F9012081277FFC01208383E290E0B2
:10088000FC018081882F90E0887090709595879505
:10089000959587959595879581708170909139018F
:1008A0009E7F892B80933901A6C08A81813071F4A3
:1008B00089816B810E94240784E290E024E230E089
:1008C000F90120812061FC01208395C08C81813059
:1008D00051F485E290E025E230E0F90120812061C9
:1008E000FC01208309C085E290E025E230E0F901B7
:1008F00020812F7EFC01208384E290E024E230E01E
:10090000F90120812F7EFC0120838BE690E02BE60D
:1009100030E0F90120812061FC01208383E290E036
:10092000FC018081882F90E080719070959587956B
:100930009595879595958795959587958170817003
:1009400090913A019E7F892B80933A0154C08A810D
:10095000813071F489816B810E94240784E290E0E8
:1009600024E230E0F90120812062FC01208343C0B1
:100970008C81813051F485E290E025E230E0F9018C
:1009800020812062FC01208309C085E290E025E2FD
:1009900030E0F90120812F7DFC01208384E290E08A
:1009A00024E230E0F90120812F7DFC0120838BE6D9
:1009B00090E02BE630E0F90120812062FC012083E9
:1009C00083E290E0FC018081882F90E0807290703B
:1009D00095958795959587959595879595958795FF
:1009E000959587958170817090913B019E7F892BB1
:1009F00080933B0100000F900F900F900F90CF91CC
:100A0000DF910895DF93CF93CDB7DEB727970FB669
:100A1000F894DEBF0FBECDBF89837B836A835D837D
:100A20004C833F832E83F8948981882F90E0853012
:100A3000910509F4F5C086309105BCF4823091052A
:100A400009F47CC0833091053CF4009759F1813062
:100A5000910509F44DC0EEC18330910509F494C0AD
:100A60008430910509F4B6C0E5C18830910509F4D8
:100A700049C1893091054CF48630910509F4F6C0DE
:100A80008730910509F418C1D5C18A30910509F460
:100A900085C18A3091050CF45BC18B30910509F456
:100AA000A3C1C8C1809130018170282F8A819B81A8
:100AB000FC0120838091300186958170282F8C81E4
:100AC0009D81FC012083809130018D7F80933001D6
:100AD00080913001869586958170282F8E819F8127
:100AE000FC012083809130018B7F80933001A2C173
:100AF000809131018170282F8A819B81FC012083A4
:100B00008091310186958170282F8C819D81FC0117
:100B10002083809131018D7F80933101809131015B
:100B2000869586958170282F8E819F81FC01208378
:100B3000809131018B7F809331017CC180913201A2
:100B40008170282F8A819B81FC0120838091320152
:100B500086958170282F8C819D81FC012083809156
:100B600032018D7F80933201809132018695869586
:100B70008170282F8E819F81FC012083809132011A
:100B80008B7F8093320156C1809133018170282F71
:100B90008A819B81FC01208380913301869581703D
:100BA000282F8C819D81FC012083809133018D7FD2
:100BB0008093330180913301869586958170282F2B
:100BC0008E819F81FC012083809133018B7F8093F4
:100BD000330130C1809134018170282F8A819B813B
:100BE000FC0120838091340186958170282F8C81AF
:100BF0009D81FC012083809134018D7F809334019D
:100C000080913401869586958170282F8E819F81F1
:100C1000FC012083809134018B7F809334010AC1D1
:100C2000809135018170282F8A819B81FC0120836E
:100C30008091350186958170282F8C819D81FC01E2
:100C40002083809135018D7F80933501809135011E
:100C5000869586958170282F8E819F81FC01208347
:100C6000809135018B7F80933501E4C080913601FE
:100C70008170282F8A819B81FC012083809136011D
:100C800086958170282F8C819D81FC012083809125
:100C900036018D7F80933601809136018695869549
:100CA0008170282F8E819F81FC01208380913601E5
:100CB0008B7F80933601BEC0809137018170282FD1
:100CC0008A819B81FC012083809137018695817008
:100CD000282F8C819D81FC012083809137018D7F9D
:100CE0008093370180913701869586958170282FF2
:100CF0008E819F81FC012083809137018B7F8093BF
:100D0000370198C0809138018170282F8A819B819A
:100D1000FC0120838091380186958170282F8C8179
:100D20009D81FC012083809138018D7F8093380163
:100D300080913801869586958170282F8E819F81BC
:100D4000FC012083809138018B7F8093380172C031
:100D5000809139018170282F8A819B81FC01208339
:100D60008091390186958170282F8C819D81FC01AD
:100D70002083809139018D7F8093390180913901E1
:100D8000869586958170282F8E819F81FC01208316
:100D9000809139018B7F809339014CC080913A0159
:100DA0008170282F8A819B81FC01208380913A01E8
:100DB00086958170282F8C819D81FC0120838091F4
:100DC0003A018D7F80933A0180913A01869586950C
:100DD0008170282F8E819F81FC01208380913A01B0
:100DE0008B7F80933A0126C080913B018170282F30
:100DF0008A819B81FC01208380913B0186958170D3
:100E0000282F8C819D81FC01208380913B018D7F67
:100E100080933B0180913B01869586958170282FB8
:100E20008E819F81FC01208380913B018B7F809389
:100E30003B010000789427960FB6F894DEBF0FBEF2
:100E4000CDBFCF91DF910895DF93CF9300D0CDB781
:100E5000DEB789836A838981882F90E08530910588
:100E600009F4BEC086309105BCF48230910509F4C6
:100E700066C0833091053CF4009759F181309105AB
:100E800009F442C07FC18330910509F473C08430F6
:100E9000910509F48AC076C18830910509F4F1C042
:100EA000893091054CF48630910509F4B4C087303F
:100EB000910509F4CBC066C18A30910509F417C1C8
:100EC0008A3091050CF4F8C08B30910509F429C1E2
:100ED00059C18A81882351F48BE290E02BE230E003
:100EE000F90120812B7FFC0120834CC18A81813054
:100EF00009F031C18BE290E02BE230E0F901208172
:100F00002460FC0120833EC18A81882351F48BE256
:100F100090E02BE230E0F9012081277FFC01208363
:100F200031C18A81813009F018C18BE290E02BE257
:100F300030E0F90120812860FC01208323C18A81EF
:100F4000882351F48BE290E02BE230E0F90120811C
:100F50002F7EFC01208316C18A81813009F0FFC0F9
:100F60008BE290E02BE230E0F90120812061FC016E
:100F7000208308C18A81882351F48BE290E02BE220
:100F800030E0F90120812F7DFC012083FBC08A81A4
:100F9000813009F0E6C08BE290E02BE230E0F9010D
:100FA00020812062FC012083EDC08A81882351F4D6
:100FB0008BE290E02BE230E0F90120812F7BFC01F5
:100FC0002083E0C08A81813009F0CDC08BE290E0BF
:100FD0002BE230E0F90120812064FC012083D2C0A3
:100FE0008A81882351F48BE290E02BE230E0F90112
:100FF00020812F77FC012083C5C08A81813009F0D0
:10100000B4C08BE290E02BE230E0F901208120684F
:10101000FC012083B7C08A81882351F485E290E0E7
:1010200025E230E0F90120812E7FFC012083AAC057
:101030008A81813009F09BC085E290E025E230E0B2
:10104000F90120812160FC0120839CC08A818823D2
:1010500051F485E290E025E230E0F90120812D7F16
:10106000FC0120838FC08A81813009F082C085E233
:1010700090E025E230E0F90120812260FC0120832C
:1010800081C08A81882351F485E290E025E230E036
:10109000F90120812B7FFC01208374C08A8181307B
:1010A00009F069C085E290E025E230E0F901208195
:1010B0002460FC01208366C08A81882351F485E284
:1010C00090E025E230E0F9012081277FFC012083B8
:1010D00059C08A81813009F050C085E290E025E254
:1010E00030E0F90120812860FC0120834BC08A8117
:1010F000882351F485E290E025E230E0F901208177
:101100002F7EFC0120833EC08A818130C1F585E2BB
:1011100090E025E230E0F90120812061FC0120838C
:1011200031C08A81882351F485E290E025E230E0E5
:10113000F90120812F7DFC01208324C08A81813028
:1011400001F585E290E025E230E0F901208120629E
:10115000FC01208317C0000015C0000013C0000070
:1011600011C000000FC000000DC000000BC0000047
:1011700009C0000007C0000005C0000003C0000057
:1011800001C000000F900F90CF91DF910895DF9381
:10119000CF930F92CDB7DEB789838981882F90E0F6
:1011A00087309105C1F188309105A4F48430910510
:1011B00061F1853091053CF48230910511F1833065
:1011C000910509F136C08530910509F18630910508
:1011D00001F12FC08A30910521F18B3091053CF44B
:1011E00088309105D1F089309105C9F022C08C304A
:1011F0009105D9F08C309105B4F08D309105B9F09E
:1012000018C080E017C081E015C082E013C083E001
:1012100011C084E00FC085E00DC086E00BC087E000
:1012200009C088E007C089E005C08AE003C08BE000
:1012300001C08CE00F90CF91DF9108951F920F9223
:101240000FB60F9211248F939F93EF93FF93DF9329
:10125000CF93CDB7DEB72697DEBFCDBF8BE690E04C
:10126000FC018081882F90E081709070882321F1AB
:1012700083E290E0FC018081817089838091360156
:101280008170982F89819817B9F08981882331F46A
:101290008091360184608093360105C080913601CB
:1012A00082608093360189818170817090913601CE
:1012B0009E7F892B809336018BE690E0FC01808134
:1012C000882F90E082709070009749F183E290E05F
:1012D000FC018081882F90E08270907095958795B1
:1012E0008A83809137018170982F8A819817B9F08D
:1012F0008A81882331F4809137018460809337019B
:1013000005C0809137018260809337018A818170A6
:101310008170909137019E7F892B809337018BE6F6
:1013200090E0FC018081882F90E08470907000979D
:1013300059F183E290E0FC018081882F90E0847075
:10134000907095958795959587958B8380913801B9
:101350008170982F8B819817B9F08B81882331F495
:101360008091380184608093380105C080913801F4
:101370008260809338018B818170817090913801F7
:101380009E7F892B809338018BE690E0FC01808161
:10139000882F90E088709070009769F183E290E068
:1013A000FC018081882F90E08870907095958795DA
:1013B00095958795959587958C8380913901817056
:1013C000982F8C819817B9F08C81882331F4809103
:1013D000390184608093390105C0809139018260B0
:1013E000809339018C8181708170909139019E7F49
:1013F000892B809339018BE690E0FC018081882F56
:1014000090E080719070009779F183E290E0FC01A8
:101410008081882F90E08071907095958795959543
:10142000879595958795959587958D8380913A01B8
:101430008170982F8D819817B9F08D81882331F4B0
:1014400080913A01846080933A0105C080913A010D
:10145000826080933A018D818170817090913A0110
:101460009E7F892B80933A018BE690E0FC0180817E
:10147000882F90E080729070009789F183E290E06D
:10148000FC018081882F90E08072907095958795FF
:101490009595879595958795959587959595879534
:1014A0008E8380913B018170982F8E819817B9F0BF
:1014B0008E81882331F480913B01846080933B01CD
:1014C00005C080913B01826080933B018E818170D9
:1014D000817090913B019E7F892B80933B012696E2
:1014E000DEBFCDBFCF91DF91FF91EF919F918F91A3
:1014F0000F900FBE0F901F9018951F920F920FB66E
:101500000F9211248F939F93EF93FF93DF93CF93C9
:10151000CDB7DEB72697DEBFCDBF8DE690E0FC01EC
:101520008081882F90E084709070009759F189E253
:1015300090E0FC018081882F90E0847090709595F8
:101540008795959587958983809130018170982F33
:1015500089819817B9F08981882331F4809130010D
:1015600084608093300105C0809130018260809357
:101570003001898181708170909130019E7F892B2B
:10158000809330018DE690E0FC018081882F90E00F
:1015900088709070009769F189E290E0FC01808189
:1015A000882F90E088709070959587959595879590
:1015B000959587958A83809131018170982F8A81D2
:1015C0009817B9F08A81882331F4809131018460C1
:1015D0008093310105C08091310182608093310197
:1015E0008A8181708170909131019E7F892B8093D7
:1015F00031018DE690E0FC018081882F90E08071C0
:101600009070009779F189E290E0FC018081882F49
:1016100090E08071907095958795959587959595B3
:101620008795959587958B83809132018170982F4E
:101630008B819817B9F08B81882331F48091320126
:1016400084608093320105C0809132018260809372
:1016500032018B8181708170909132019E7F892B44
:10166000809332018DE690E0FC018081882F90E02C
:1016700080729070009789F189E290E0FC0180818E
:10168000882F90E0807290709595879595958795B5
:101690009595879595958795959587958C83809158
:1016A00033018170982F8C819817B9F08C81882331
:1016B00031F48091330184608093330105C08091BF
:1016C00033018260809333018C81817081709091AD
:1016D00033019E7F892B809333018DE690E0FC01DE
:1016E0008081882F90E080749070009779F189E272
:1016F00090E0FC018081882F90E080749070082E2B
:10170000892F000C881F990B000C881F991F8D834F
:10171000809134018170982F8D819817B9F08D8157
:10172000882331F48091340184608093340105C0B2
:10173000809134018260809334018D818170817049
:10174000909134019E7F892B809334018DE690E047
:10175000FC018081882334F589E290E0FC018081DE
:10176000881F8827881F8E83809135018170982F6C
:101770008E819817B9F08E81882331F480913501DC
:1017800084608093350105C080913501826080932B
:1017900035018E8181708170909135019E7F892BFA
:1017A000809335012696DEBFCDBFCF91DF91FF91AB
:1017B000EF919F918F910F900FBE0F901F901895F2
:1017C000DF93CF93CDB7DEB784EC90E028E030E034
:1017D000FC013183208380EC90E022E0FC01208337
:1017E00081EC90E028E9FC012083CF91DF910895FE
:1017F000DF93CF930F92CDB7DEB78983F8948091B2
:10180000410280914002882F90E08E5B9D4F29819C
:10181000FC012083809140028F5F80934002809181
:1018200041028F5F8093410281EC90E021EC30E037
:10183000F90120812062FC01208378940F90CF91E0
:10184000DF910895DF93CF9300D000D0CDB7DEB7FE
:101850009B838A836C8319820EC08981882F90E0D4
:101860002A813B81820F931FFC0180810E94F80B2B
:1018700089818F5F898399818C81981770F30F908C
:101880000F900F900F90CF91DF910895DF93CF933A
:1018900000D0CDB7DEB79A838983F89480913E015A
:1018A0008823B1F080913C01882F90E0815C9E4FAD
:1018B000FC01208189819A81FC01208380913C0177
:1018C0008F5F80933C0180913E01815080933E0167
:1018D00078940F900F90CF91DF910895DF93CF937D
:1018E0000F92CDB7DEB7F89480913E01898378944A
:1018F00089810F90CF91DF9108951F920F920FB6BB
:101900000F9211242F933F938F939F93EF93FF9305
:10191000DF93CF93CDB7DEB780913E0180913D013B
:10192000882F90E026EC30E0F9012081815C9E4F09
:10193000FC01208380913D018F5F80933D01809168
:101940003E018F5F80933E01CF91DF91FF91EF9138
:101950009F918F913F912F910F900FBE0F901F90ED
:1019600018951F920F920FB60F9211242F933F9349
:101970008F939F93EF93FF93DF93CF93CDB7DEB712
:1019800080914102882319F186EC90E020913F027A
:10199000222F30E02E5B3D4FF9012081FC01208396
:1019A00080913F028F5F80933F028091410281507E
:1019B0008093410280914102882349F481EC90E0B8
:1019C00021EC30E0F90120812F7DFC012083CF91B3
:1019D000DF91FF91EF919F918F913F912F910F9008
:1019E0000FBE0F901F901895DF93CF93CDB7DEB742
:1019F0008EE790E02FE0FC0120838CE790E020E46C
:101A0000FC0120838AE790E027E8FC0120838AE735
:101A100090E02AE730E0F90120812064FC01208376
:101A200000008AE790E0FC018081882F90E08074BC
:101A300090700097B1F7CF91DF910895DF93CF9326
:101A400000D00F92CDB7DEB78B831A8219828CE754
:101A500090E02CE730E0F9012081207FFC01208319
:101A60008B81882F90E08330910559F18430910566
:101A700054F48130910589F082309105C4F40097C7
:101A800009F44AC046C08530910579F18530910549
:101A900014F18630910599F13CC08CE790E02CE779
:101AA00030E0F90120812160FC01208336C08CE701
:101AB00090E02CE730E0F90120812260FC012083D6
:101AC0002CC08CE790E02CE730E0F9012081236006
:101AD000FC01208322C08CE790E02CE730E0F90184
:101AE00020812460FC01208318C08CE790E02CE763
:101AF00030E0F90120812560FC0120830EC08CE7D5
:101B000090E02CE730E0F90120812860FC0120837F
:101B100004C087E090E01EC000008AE790E02AE75A
:101B200030E0F90120812064FC01208300008AE775
:101B300090E0FC018081882F90E080749070009785
:101B4000B1F788E790E0FC01808191819A838983D5
:101B500089819A810F900F900F90CF91DF91089516
:101B6000DF93CF930F92CDB7DEB789838981882F1A
:101B700090E082309105B9F08330910534F40097FC
:101B800071F08130910569F016C08430910579F0CB
:101B90008430910554F08530910559F00CC080E0F7
:101BA0000BC081E009C082E007C083E005C084E08B
:101BB00003C085E001C087E00F90CF91DF910895C9
:101BC000DF93CF930F92CDB7DEB789838091420325
:101BD000882F90E08330910509F44CC08430910542
:101BE0005CF48130910509F43DC0823091050CF020
:101BF0003DC0009769F050C08530910509F442C09E
:101C000085309105DCF18630910509F43FC044C070
:101C10008981813021F481E0809342033DC0898134
:101C2000823021F482E08093420336C08981833080
:101C300021F483E0809342032FC08981843021F412
:101C400084E08093420328C08981853021F485E0B7
:101C50008093420321C089818630E9F486E0809335
:101C600042031AC089810E94500E16C089810E94C9
:101C7000290F12C089810E948A100EC089810E949A
:101C800073110AC089810E946D1306C089810E9468
:101C90004A15000001C000000F90CF91DF91089518
:101CA000DF93CF93CDB7DEB768970FB6F894DEBF5A
:101CB0000FBECDBF888F80914303882F90E0813085
:101CC000910529F1823091051CF4009751F0B8C0BC
:101CD0008230910509F440C08330910509F474C045
:101CE000AFC0888D813021F481E080934303A8C088
:101CF000888D823021F482E080934303A1C0888DD7
:101D0000833009F09AC083E08093430399C082E056
:101D1000898381E0888781E089871A861B8699817B
:101D2000888D981719F481E08A8701C01A869885F2
:101D30008985980F8A85890F8B87CE01089664E084
:101D40000E94220C10924303109242039981888DC5
:101D5000981709F074C0FFCF83E08A83CE010C96F8
:101D600020E131E046E0F90100802F5F3F4FFC01A8
:101D70000082019641504423B1F79A81888D9817CB
:101D800071F481E08E870E947E169C838B838B8109
:101D90009C81892F99278F878B81888B01C01E8614
:101DA0009C858D85980F8E85980F8F85980F8889D3
:101DB000890F898BCE010C9666E00E94220C10924E
:101DC0004303109242033CC084E08D83CE014296CF
:101DD00026E131E046E0F90100802F5F3F4FFC0132
:101DE0000082019641504423B1F79D81888D981758
:101DF00071F481E08C8B0E9447169F838E838E81C5
:101E00009F81892F99278D8B8E818E8B01C01C8A93
:101E10009A898B89980F8C89980F8D89980F8E8954
:101E2000890F8F8BCE01429666E00E94220C1092A1
:101E3000430310924203000003C0000001C00000F1
:101E400068960FB6F894DEBF0FBECDBFCF91DF917D
:101E50000895DF93CF93CDB7DEB767970FB6F894A9
:101E6000DEBF0FBECDBF8F8B80914403882F90E0E3
:101E70008430910509F49FC08530910584F4813048
:101E80009105A1F1823091051CF40097C9F039C188
:101E90008230910591F183309105B1F132C18630E4
:101EA000910509F4E8C0863091050CF48BC08730A9
:101EB000910509F4E7C08830910509F4EAC021C111
:101EC0008F89813021F481E0809344031AC18F8986
:101ED000823021F484E08093440313C18F898330DE
:101EE00009F00EC186E0809344030BC18F89809373
:101EF0005C0382E08093440304C18F8980935D0377
:101F000083E080934403FDC090915C0380915D0366
:101F1000890F8D5F8A8382E08F8381E088871986AD
:101F20001A869A818F899817A9F580915C0382306F
:101F300088F180915C038E3068F5198280915D0391
:101F4000882F90E081709070882319F081E0898358
:101F500001C0198280915D03882F90E0827090709B
:101F6000959587958B8380915D03882F90E0847091
:101F7000907095958795959587958C8380915C0356
:101F80000E94C70869814B812C810E94FC0081E07E
:101F9000898701C019869F818885980F8985890F57
:101FA0008A87CE01079664E00E94220C10924403B7
:101FB00010924203A6C08F8980935C0385E08093D2
:101FC00044039FC080915C038C5F8D83CE010B9690
:101FD0002BE031E045E0F90100802F5F3F4FFC012D
:101FE0000082019641504423B1F79D818F89981753
:101FF00079F580915C03823058F180915C038E30DA
:1020000038F5188A198A1A8A80915C030E94C708D9
:10201000BE01605F7F4FAE014F5E5F4F9E012E5E3F
:102020003F4F0E94020581E08D878989882F90E0CB
:10203000880F991F982F8889292F282B8A89882F04
:1020400090E0880F991F880F991F822B8E8701C0FF
:102050001D869B858C85980F8D85980F8E85890FA1
:102060008F87CE010B9665E00E94220C10924403EC
:102070001092420346C08F8980935C0387E080936F
:1020800044033FC08F8980935E0388E080934403BC
:1020900038C090915C0380915E03890F8B5F8E83C3
:1020A00082E08B8B83E08C8B1D8A1E8A9E818F89B8
:1020B0009817A1F480915C03823080F080915C03DA
:1020C0008E3060F480915C030E94C70890915E039B
:1020D000692F0E94240781E08D8B01C01D8A9B8996
:1020E0008C89980F8D89890F8E8BCE01439664E081
:1020F0000E94220C1092440310924203000001C07F
:10210000000067960FB6F894DEBF0FBECDBFCF912B
:10211000DF910895DF93CF93CDB7DEB76F970FB6FA
:10212000F894DEBF0FBECDBF8F8F80914503882FFF
:1021300090E081309105E9F0823091051CF4009720
:1021400049F0C8C082309105D9F08330910509F477
:1021500059C0C0C08F8D823021F481E08093450347
:10216000B9C08F8D833009F0B4C083E080934503FC
:10217000B1C08F8D80935B0382E080934503AAC03A
:1021800080915B038B5F8B83CE01099625E031E064
:1021900046E0F90100802F5F3F4FFC01008201966D
:1021A00041504423B1F79B818F8D9817B1F48091F2
:1021B0005B03863090F480915B030E94B00D0E9417
:1021C0001E0D9D838C8381E08B878C819D81892F5F
:1021D00099278C878C818D8701C01B8699858A857C
:1021E000980F8B85980F8C85980F8D85890F8E871A
:1021F000CE01099666E00E94220C109245031092CF
:10220000420368C086E08E8320E1CE010F96FC0178
:10221000322F11923A95E9F783E08F8783E0888B1C
:102220009E818F8D981791F518861F82198281E003
:10223000898B198227C0898186950E94B00D0E94E2
:102240001E0D98878F838981882F90E003962F81B8
:102250003885232F3327422F9E01215F3F4F820F66
:10226000931FFC0140838981882F90E004964F8161
:102270009E01215F3F4F820F931FFC0140838981A4
:102280008E5F898389818C30B0F201C0198A1E8EDD
:102290001A821A8210C04E8D8A81882F90E09E018A
:1022A000215F3F4F820F931FFC018081840F8E8F2F
:1022B0008A818F5F8A838A818F3068F3CE010F967F
:1022C00060E10E94220C109245031092420300002C
:1022D00001C000006F960FB6F894DEBF0FBECDBFF1
:1022E000CF91DF910895DF93CF93CDB7DEB7C15182
:1022F000D1400FB6F894DEBF0FBECDBF9E012F5E5A
:102300003E4FF901808380914603882F90E085300D
:10231000910509F4B9C086309105BCF4823091056D
:1023200009F45DC0833091053CF4009759F1813088
:10233000910509F449C0C7C18330910509F48EC0E5
:102340008430910509F495C0BEC18830910509F427
:1023500030C1893091054CF48630910509F49FC055
:102360008730910509F41AC1AEC18A30910509F48C
:1023700038C18A3091050CF427C18B30910509F4DE
:102380004DC1A1C1CE018F5E9E4FFC018081813085
:1023900021F481E08093460396C1CE018F5E9E4F6B
:1023A000FC018081823021F483E0809346038BC15D
:1023B000CE018F5E9E4FFC018081833009F080C189
:1023C00087E0809346037FC1CE018F5E9E4FFC0164
:1023D000808180934E0382E08093460374C1809194
:1023E0004E038B5F8C8384E08E8381E08F8318861D
:1023F0001986CE018F5E9E4F2C81FC0180812817AB
:10240000D1F480914E03882321F080914E038130D6
:1024100091F481E0888780914E03882321F480E045
:102420000E9421170BC080914E03813031F481E06E
:102430000E94211703C0188601C000009E818F8171
:10244000980F8885890F8987CE01069664E00E94DF
:10245000220C109246031092420335C1CE018F5ECA
:102460009E4FFC01808180934F0384E0809346035C
:102470002AC1CE018F5E9E4FFC0180818093500364
:1024800085E0809346031FC1CE018F5E9E4FFC0105
:1024900080818093510386E08093460314C190911C
:1024A0004F0380915003980F80915103890F8A5FE9
:1024B0008D8384E08E8782E08F87CE018F5E9E4F72
:1024C0002D81FC0180812817C9F480914F03582F7A
:1024D0004091500370915103CE010E969C012D5FE7
:1024E0003F4F852F642FA901272F0E949317882320
:1024F00019F081E0888B03C0188A01C0188A809186
:102500005103882F90E003969E01225F3F4F820F78
:10251000931FFC011082198228C080915103882FDB
:1025200090E0039620915103222F30E02D5F3F4F22
:10253000AE01425F5F4F240F351FF9016081298191
:10254000222F30E0AE01425F5F4F240F351FF901AB
:102550002081462F420F9E01225F3F4F820F931F23
:10256000FC01408389818F5F89838981282F30E036
:1025700080915103882F90E00396281739076CF259
:1025800080915103282F2C5FCE010E96622F0E945E
:10259000220C109246031092420395C0CE018F5E2A
:1025A0009E4FFC01808180934F0388E08093460317
:1025B0008AC0CE018F5E9E4FFC01808180935003C4
:1025C00089E0809346037FC0CE018F5E9E4FFC0161
:1025D000808180935103109252038AE080934603D6
:1025E00072C080915203882F90E08D5A9C4F9E01BB
:1025F0002F5E3E4FF9012081FC0120838091520320
:102600008F5F8093520390915203809151039817EA
:1026100009F058C08BE08093460355C090914F035A
:1026200080915003980F80915103890F895F8A83AD
:1026300084E08A8783E08B871C861D861B820DC001
:102640008B81882F90E08D5A9C4FFC0180819A816C
:10265000890F8A838B818F5F8B83809151039B814C
:10266000981770F3CE018F5E9E4F2A81FC01808106
:102670002817A1F480914F0340915003909151038A
:1026800023E533E0642FA901292F0E9450178823E6
:1026900019F081E08C8703C01C8601C01C869A85D6
:1026A0008B85980F8C85890F8D87CE010A9664E003
:1026B0000E94220C1092460310924203000003C0B5
:1026C000000001C00000CF5EDE4F0FB6F894DEBF01
:1026D0000FBECDBFCF91DF910895DF93CF93CDB7DC
:1026E000DEB72F970FB6F894DEBF0FBECDBF8F8732
:1026F00080914703882F90E08430910509F448C009
:102700008530910584F48130910569F1823091051D
:102710001CF40097C9F0B5C18230910559F183309E
:10272000910579F1AEC18630910509F4E9C0863092
:1027300091050CF4DEC08730910509F4E8C08830BB
:10274000910509F4EBC09DC18F85813021F481E0B2
:102750008093470396C18F85823009F091C185E04F
:10276000809347038EC18F8580934B0382E08093D3
:10277000470387C18F8580934C0383E08093470391
:1027800080C18F8580934D0384E08093470379C196
:1027900090914B0380914C03980F80914D03890FCA
:1027A0008A5F898385E08F8381E0888719861A860E
:1027B00099818F85981709F089C080914B038930E2
:1027C000E9F080914B038A30C9F080914B0382304D
:1027D000A9F080914B03833089F080914B038430C2
:1027E00069F080914B03853049F080914B0386302E
:1027F00029F080914B03873009F068C080914D0328
:10280000882F90E0382F222780914C03882F90E06A
:10281000820F931F9B838A8381E0898780914B037A
:10282000893039F42A813B8180E0B9010E9449183E
:1028300050C080914B038A3039F42A813B8181E07A
:10284000B9010E94491845C080914B03823039F488
:102850002A813B8182E0B9010E9449183AC08091E7
:102860004B03833039F42A813B8183E0B9010E9414
:1028700049182FC080914B03843039F42A813B8161
:1028800084E0B9010E94491824C080914B0385302F
:1028900039F42A813B8185E0B9010E94491819C0A9
:1028A00080914B03863039F42A813B8186E0B9015F
:1028B0000E9449180EC080914B03873049F42A8149
:1028C0003B8187E0B9010E94491803C0198601C005
:1028D00000009F818885980F8985890F8A87CE019E
:1028E000079664E00E94220C109247031092420364
:1028F000C8C08F8580934B0386E080934703C1C097
:102900008F8580934C0387E080934703BAC08F85FF
:1029100080934D0388E080934703B3C090914B03AD
:1029200080914C03980F80914D03890F895F8C83B0
:1029300085E08B8782E08C871D861E869C818F8533
:10294000981709F089C080914B038930E9F0809194
:102950004B038A30C9F080914B038230A9F08091FB
:102960004B03833089F080914B03843069F0809170
:102970004B03853049F080914B03863029F08091DC
:102980004B03873009F068C080914D03882F90E099
:10299000382F222780914C03882F90E0820F931FBD
:1029A0009E838D8381E08D8780914B03893039F43C
:1029B0002D813E8180E0B9010E945D1950C0809157
:1029C0004B038A3039F42D813E8181E0B9010E94A8
:1029D0005D1945C080914B03823039F42D813E81D1
:1029E00082E0B9010E945D193AC080914B038330A7
:1029F00039F42D813E8183E0B9010E945D192FC019
:102A000080914B03843039F42D813E8184E0B901FB
:102A10000E945D1924C080914B03853039F42D81CB
:102A20003E8185E0B9010E945D1919C080914B0378
:102A3000863039F42D813E8186E0B9010E945D190E
:102A40000EC080914B03873049F42D813E8187E091
:102A5000B9010E945D1903C01D8601C000009B855D
:102A60008C85980F8D85890F8E87CE010B9664E03B
:102A70000E94220C1092470310924203000001C0F2
:102A800000002F960FB6F894DEBF0FBECDBFCF91DA
:102A9000DF910895DF93CF93CDB7DEB72D970FB6B3
:102AA000F894DEBF0FBECDBF8D8780914803882F7D
:102AB00090E08230910559F18330910534F400970C
:102AC00081F081309105E1F0D9C08430910509F49D
:102AD00084C08430910514F18530910509F484C0D7
:102AE000CDC08D85813021F481E080934803C6C03C
:102AF0008D85823009F0C1C084E080934803BEC058
:102B00008D858093490382E080934803B7C08D850B
:102B100080934A0383E080934803B0C090914903B7
:102B200080914A03890F895F8A8386E08C8381E0E4
:102B30008D831E821F829A818D859817D9F5809189
:102B40004903823021F080914903833099F581E077
:102B50008E8380914A03882F90E081709070882343
:102B600011F0198215C080914A03882F90E082707D
:102B70009070009719F081E089830AC080914A0320
:102B8000882F90E084709070009711F082E0898324
:102B900080914903823029F480E069810E94001B02
:102BA0000CC080914903833039F481E069810E942F
:102BB000001B03C01E8201C000009C818D81980F04
:102BC0008E81890F8F83CE01049664E00E94220CCF
:102BD000109248031092420351C08D85809349039F
:102BE00085E0809348034AC080914903885F8B83C6
:102BF000CE01089620E031E045E0F90100802F5F2A
:102C00003F4FFC010082019641504423B1F79B8164
:102C10008D859817E1F480914903823021F08091ED
:102C200049038330A1F481E08A878091490382308F
:102C300029F480E00E949D1B8B870CC08091490382
:102C4000833039F481E00E949D1B8B8703C01A8674
:102C500001C0000098858985980F8A85980F8B851B
:102C6000890F8C87CE01089665E00E94220C109295
:102C7000480310924203000001C000002D960FB6D9
:102C8000F894DEBF0FBECDBFCF91DF910895DF93E3
:102C9000CF9300D0CDB7DEB78CE790E02CE730E0E3
:102CA000F9012081206CFC0120838AE790E02AE76B
:102CB00030E0F90120812064FC01208300008AE7D4
:102CC00090E0FC018081882F90E0807490700097E4
:102CD000B1F786E00E941E0D9A8389838CE790E00D
:102CE0002CE730E0F90120812F77FC0120838981D6
:102CF0009A810F900F90CF91DF910895DF93CF933A
:102D0000CDB7DEB780911C0190911D01CF91DF916D
:102D10000895DF93CF930F92CDB7DEB789838CEB05
:102D200090E024EAFC01208300008CEB90E0FC01A1
:102D300080818823D4F789EB90E0FC018081882F83
:102D400090E0887F90708830910569F089EB90E081
:102D5000FC018081882F90E0887F90708031910500
:102D600011F080E02AC08BEB90E02981FC012083E8
:102D70008CEB90E024E8FC01208300008CEB90E0D9
:102D8000FC0180818823D4F789EB90E0FC018081ED
:102D9000882F90E0887F90708831910569F089EBE9
:102DA00090E0FC018081882F90E0887F90708034D3
:102DB000910511F080E001C081E00F90CF91DF918B
:102DC0000895DF93CF93CDB7DEB78CEB90E024E985
:102DD000FC01208300008CEB90E0FC018081882FB7
:102DE00090E0807190700097B1F7CF91DF910895D6
:102DF000DF93CF930F92CDB7DEB789838BEB90E053
:102E00002981FC0120838CEB90E024E8FC012083E5
:102E100000008CEB90E0FC0180818823D4F789EBE3
:102E200090E0FC018081882F90E0887F907088324C
:102E3000910511F080E001C081E00F90CF91DF910A
:102E40000895DF93CF930F92CDB7DEB7898388E2E1
:102E500090E028E230E0F90120812061FC0120832C
:102E600088E290E028E230E0F90120812062FC0154
:102E700020838981882339F488EB90E020911E011A
:102E8000FC01208309C08981813031F488EB90E016
:102E900020911F01FC0120830F90CF91DF910895B5
:102EA000DF93CF9300D000D000D0CDB7DEB78A83B8
:102EB0006B835D834C832E838E81882311F480E0A5
:102EC00029C08A810E948916882311F480E022C0DB
:102ED0008B810E94F816882311F480E01BC01982B0
:102EE00012C08981882F90E02C813D81820F931F31
:102EF000FC0180810E94F816882311F480E00AC04A
:102F000089818F5F898399818E81981750F30E9400
:102F1000E11681E026960FB6F894DEBF0FBECDBF56
:102F2000CF91DF910895DF93CF9300D000D000D0F0
:102F3000CDB7DEB78A836B835D834C832E838E810E
:102F4000882311F480E05BC08A810E94891688235F
:102F500011F480E054C08B810E94F816882311F48C
:102F600080E04DC08A818F5F0E948916882311F40A
:102F700080E045C019821CC08CEB90E024ECFC0181
:102F8000208300008CEB90E0FC0180818823D4F743
:102F90008981882F90E02C813D81820F931F2BEB3C
:102FA00030E0F9012081FC01208389818F5F8983D2
:102FB0008981282F30E08E81882F90E00197281793
:102FC0003907D4F28CEB90E024E8FC012083000068
:102FD0008CEB90E0FC0180818823D4F78E81882FD0
:102FE00090E001972C813D81820F931F2BEB30E005
:102FF000F9012081FC0120830E94E11681E02696E0
:103000000FB6F894DEBF0FBECDBFCF91DF9108950C
:10301000DF93CF93CDB7DEB78FE593E060E070E04C
:1030200041E050E00E94ED1B84E890E0FC01118239
:10303000108281E890E021E830E0F90120812061F0
:10304000FC01208386E890E0209126013091270141
:10305000FC013183208388E890E0209122013091A7
:103060002301FC01318320838AE890E02091220132
:1030700030912301FC013183208386E490E0FC0140
:1030800010828EE690E021E0FC012083CF91DF9159
:103090000895DF93CF9300D00F92CDB7DEB7898329
:1030A0007B836A832A813B818981B9010E945D19F2
:1030B0008981882F90E08330910509F471C08430B4
:1030C000910554F481309105A1F1823091050CF005
:1030D0004CC0009791F0EBC08530910509F496C083
:1030E000853091050CF477C08630910509F4A9C0AC
:1030F0008730910509F4C0C0DAC084E290E024E290
:1031000030E0F90120812260FC01208380E890E01A
:1031100020E830E0F90120812068FC01208381E86B
:1031200090E021E830E0F90120812260FC01208359
:10313000BEC084E290E024E230E0F9012081246006
:10314000FC01208380E890E020E830E0F901208154
:103150002062FC01208381E890E021E830E0F90161
:1031600020812260FC012083A2C08AE290E02AE252
:1031700030E0F90120812460FC01208380915F030D
:10318000816080935F038A818093290185E490E0C8
:1031900025E430E0F90120812260FC01208387C012
:1031A0008AE290E02AE230E0F90120812860FC0107
:1031B000208380915F03826080935F038A81809384
:1031C0002A0185E490E025E430E0F90120812260C5
:1031D000FC0120836CC08AE290E02AE230E0F90131
:1031E00020812061FC01208380915F0384608093B3
:1031F0005F038A8180932B0185E490E025E430E031
:10320000F90120812260FC01208351C08AE290E014
:103210002AE230E0F90120812062FC0120838091C4
:103220005F03886080935F038A8180932C0185E42B
:1032300090E025E430E0F90120812260FC01208348
:1032400036C08AE290E02AE230E0F9012081206471
:10325000FC01208380915F03806180935F038A81FA
:1032600080932D0185E490E025E430E0F901208190
:103270002260FC0120831BC08AE290E02AE230E059
:10328000F90120812068FC01208380915F03806226
:1032900080935F038A8180932E0185E490E025E48A
:1032A00030E0F90120812260FC01208300000F90B2
:1032B0000F900F90CF91DF910895DF93CF9300D0BF
:1032C00000D00F92CDB7DEB78B837D836C831A82DB
:1032D00019828B81882319F08B81813021F58091AF
:1032E0002001909121012C813D812817390738F464
:1032F00080912001909121019A83898314C080914B
:103300002401909125012C813D818217930738F487
:1033100080912401909125019A83898304C08C8136
:103320009D819A8389838B81882F90E083309105DA
:1033300069F1843091054CF481309105D9F08230E7
:10334000910504F5009771F035C08530910531F194
:1033500085309105FCF08630910521F1873091058B
:1033600029F128C088E890E029813A81FC01318365
:10337000208320C08AE890E029813A81FC013183D2
:10338000208318C08C818093290114C08C81809384
:103390002A0110C08C8180932B010CC08C818093FA
:1033A0002C0108C08C8180932D0104C08C818093F6
:1033B0002E0100000F900F900F900F900F90CF9163
:1033C000DF9108951F920F920FB60F9211242F9341
:1033D0003F938F939F93EF93FF93DF93CF9300D00F
:1033E000CDB7DEB788EC898384E68A8386E490E0F3
:1033F00020912801FC012083809160038F5F8093DE
:103400006003809161038F5F809361038091620309
:10341000882309F062C0909160038981981709F0B0
:10342000E0C080915F038170882349F08BE290E0D7
:103430002BE230E0F90120812460FC01208380919F
:103440005F038270882349F08BE290E02BE230E04A
:10345000F90120812860FC01208380915F03847042
:10346000882349F08BE290E02BE230E0F9012081E3
:103470002061FC01208380915F038870882349F0DC
:103480008BE290E02BE230E0F90120812062FC0128
:10349000208380915F038071882349F08BE290E064
:1034A0002BE230E0F90120812064FC01208380912F
:1034B0005F038072882349F08BE290E02BE230E0DA
:1034C000F90120812068FC01208381E08093620360
:1034D000109260031092610384C080916203813076
:1034E00009F07FC09091610380912901981771F4D0
:1034F00080915F038170882349F08BE290E02BE29A
:1035000030E0F90120812B7FFC0120839091610341
:1035100080912A01981771F480915F03827088234B
:1035200049F08BE290E02BE230E0F9012081277F27
:10353000FC0120839091610380912B01981771F415
:1035400080915F038470882349F08BE290E02BE246
:1035500030E0F90120812F7EFC01208390916103EE
:1035600080912C01981771F480915F0388708823F3
:1035700049F08BE290E02BE230E0F90120812F7DD1
:10358000FC0120839091610380912D01981771F4C3
:1035900080915F038071882349F08BE290E02BE2F9
:1035A00030E0F90120812F7BFC01208390916103A1
:1035B00080912E01981771F480915F0380728823A7
:1035C00049F08BE290E02BE230E0F90120812F7787
:1035D000FC012083909160038A81891710F4109276
:1035E00062030F900F90CF91DF91FF91EF919F9128
:1035F0008F913F912F910F900FBE0F901F901895B4
:10360000DF93CF9300D0CDB7DEB789836A838981FA
:10361000882309F045C08BE290E02BE230E0F9010D
:1036200020812460FC0120838AE290E02AE230E0DD
:10363000F90120812B7FFC0120838A81882351F4AA
:1036400089E690E029E630E0F90120812360FC0161
:10365000208319C08A81813051F489E690E029E6FF
:1036600030E0F90120812260FC0120830CC08A81B6
:10367000823049F489E690E029E630E0F9012081C2
:103680002160FC0120838DE390E02DE330E0F9011F
:1036900020812160FC01208380E00E949D1B48C0A6
:1036A0008981813009F044C08BE290E02BE230E068
:1036B000F90120812860FC0120838AE290E02AE25F
:1036C00030E0F9012081277FFC0120838A81882353
:1036D00051F489E690E029E630E0F90120812C6080
:1036E000FC01208319C08A81813051F489E690E081
:1036F00029E630E0F90120812860FC0120830CC01C
:103700008A81823049F489E690E029E630E0F901C7
:1037100020812460FC0120838DE390E02DE330E0E4
:10372000F90120812260FC01208381E00E949D1B21
:103730000F900F90CF91DF910895DF93CF9300D03A
:10374000CDB7DEB78A8319828A81882341F4F89441
:103750008091630389831092630378940AC08A81FD
:10376000813039F4F8948091640389831092640362
:10377000789489810F900F90CF91DF9108951F92D7
:103780000F920FB60F9211248F93DF93CF93CDB783
:10379000DEB7809163038F5F80936303CF91DF91E6
:1037A0008F910F900FBE0F901F9018951F920F9240
:1037B0000FB60F9211248F93DF93CF93CDB7DEB75F
:1037C000809164038F5F80936403CF91DF918F9129
:1037D0000F900FBE0F901F901895DC0101C06D93E4
:0C37E00041505040E0F70895F894FFCFEE
:1037EC0006020000000302000000000202000000BC
:1037FC000102000000000103000000000200480C60
:10380C00E803DC05D007204E370F0F0F0F0F0F000A
:00000001FF
